{
  "contractName": "Token",
  "abi": [
    {
      "constant": true,
      "inputs": [],
      "name": "totalSupply",
      "outputs": [
        {
          "internalType": "uint256",
          "name": "",
          "type": "uint256"
        }
      ],
      "payable": false,
      "stateMutability": "view",
      "type": "function"
    },
    {
      "constant": false,
      "inputs": [],
      "name": "token",
      "outputs": [],
      "payable": false,
      "stateMutability": "nonpayable",
      "type": "function"
    }
  ],
  "bytecode": "0x6080604052348015600f57600080fd5b5060a28061001e6000396000f3fe6080604052348015600f57600080fd5b506004361060325760003560e01c806318160ddd146037578063fc0c546a146053575b600080fd5b603d605b565b6040518082815260200191505060405180910390f35b60596061565b005b60005481565b6298968060008190555056fea265627a7a72315820015a6d5000a00c0ac3de2a552f58dfa4fd07c9d89b9aef8d228561359935751364736f6c63430005100032",
  "source": "// SPDX-License-Identifier: MIT\r\npragma solidity ^0.5.16;\r\n\r\ncontract Token{\r\n    //Constructer \r\n    //Run whenever smart contract is deployed\r\n    uint256 public totalSupply;\r\n\r\n    //because pulbic uses the getter and setter provided by solidity\r\n    /*\r\n    function totalSupply() public view returns (uint256)\r\n    */\r\n\r\n    function token () public{\r\n        totalSupply = 10000000;\r\n    }\r\n}",
  "sourcePath": "C:\\Users\\user\\desktop\\scripts\\cryptoGame\\contracts\\Token.sol",
  "compiler": {
    "name": "solc",
    "version": "0.5.16+commit.9c3226ce.Emscripten.clang"
  },
  "schemaVersion": "3.4.3",
  "updatedAt": "2021-10-14T15:48:13.647Z",
  "networkType": "ethereum",
  "devdoc": {
    "methods": {}
  },
  "userdoc": {
    "methods": {}
  }
}